{
  "_format": "hh-sol-artifact-1",
  "contractName": "DemoOperations",
  "sourceName": "contracts/DemoOperations.sol",
  "abi": [
    {
      "inputs": [],
      "name": "callAnotherFunction",
      "outputs": [],
      "stateMutability": "pure",
      "type": "function"
    },
    {
      "inputs": [
        {
          "internalType": "address",
          "name": "_addr",
          "type": "address"
        },
        {
          "internalType": "string",
          "name": "_name",
          "type": "string"
        },
        {
          "internalType": "uint256",
          "name": "_amount",
          "type": "uint256"
        }
      ],
      "name": "createAccount",
      "outputs": [],
      "stateMutability": "pure",
      "type": "function"
    },
    {
      "inputs": [],
      "name": "createCommunity",
      "outputs": [],
      "stateMutability": "pure",
      "type": "function"
    },
    {
      "inputs": [],
      "name": "externalFunction",
      "outputs": [],
      "stateMutability": "pure",
      "type": "function"
    },
    {
      "inputs": [],
      "name": "get",
      "outputs": [
        {
          "internalType": "uint256",
          "name": "",
          "type": "uint256"
        }
      ],
      "stateMutability": "view",
      "type": "function"
    },
    {
      "inputs": [
        {
          "internalType": "uint256",
          "name": "value",
          "type": "uint256"
        }
      ],
      "name": "set",
      "outputs": [],
      "stateMutability": "nonpayable",
      "type": "function"
    }
  ],
  "bytecode": "0x6080604052348015600f57600080fd5b50610c538061001f6000396000f3fe608060405234801561001057600080fd5b50600436106100625760003560e01c80633003d242146100675780633104d472146100835780633a32b5491461008d57806352f4c1011461009757806360fe47b1146100a15780636d4ce63c146100bd575b600080fd5b610081600480360381019061007c9190610995565b6100db565b005b61008b610163565b005b610095610175565b005b61009f6101b5565b005b6100bb60048036038101906100b69190610a04565b6104b0565b005b6100c56104ba565b6040516100d29190610a40565b60405180910390f35b600060405180606001604052808573ffffffffffffffffffffffffffffffffffffffff16815260200184815260200183815250905061015d6040518060400160405280601b81526020017f4163636f756e7420637265617465643a2025732c2025732c20257300000000008152508260000151836020015184604001516104c3565b50505050565b61016b610565565b6101736105a5565b565b6101b36040518060400160405280601b81526020017f65787465726e616c46756e6374696f6e207761732063616c6c656400000000008152506105e5565b565b60006040518060600160405280735b38da6a701c568545dcfcb03fcb875f56beddc473ffffffffffffffffffffffffffffffffffffffff1681526020016040518060400160405280600581526020017f416c6963650000000000000000000000000000000000000000000000000000008152508152602001606481525090506000604051806060016040528073ab8483f64d9c6d1ecf9b849ae677dd3315835cb273ffffffffffffffffffffffffffffffffffffffff1681526020016040518060400160405280600381526020017f426f620000000000000000000000000000000000000000000000000000000000815250815260200160c881525090506000604051806060016040528073ca35b7d915458ef540ade6068dfe2f44e8fa733c73ffffffffffffffffffffffffffffffffffffffff1681526020016040518060400160405280600781526020017f436861726c696500000000000000000000000000000000000000000000000000815250815260200161012c81525090506000600367ffffffffffffffff8111156103505761034f610834565b5b60405190808252806020026020018201604052801561038957816020015b610376610766565b81526020019060019003908161036e5790505b50905083816000815181106103a1576103a0610a5b565b5b602002602001018190525082816001815181106103c1576103c0610a5b565b5b602002602001018190525081816002815181106103e1576103e0610a5b565b5b6020026020010181905250600060405180602001604052808381525090506104a96040518060400160405280601d81526020017f436f6d6d756e69747920637265617465643a2025732c2025732c20257300000081525082600001516000815181106104505761044f610a5b565b5b602002602001015160200151836000015160018151811061047457610473610a5b565b5b602002602001015160200151846000015160028151811061049857610497610a5b565b5b60200260200101516020015161067e565b5050505050565b8060008190555050565b60008054905090565b61055f848484846040516024016104dd9493929190610b18565b6040516020818303038152906040527f91d1112e000000000000000000000000000000000000000000000000000000007bffffffffffffffffffffffffffffffffffffffffffffffffffffffff19166020820180517bffffffffffffffffffffffffffffffffffffffffffffffffffffffff8381831617835250505050610720565b50505050565b6105a36040518060400160405280601b81526020017f696e7465726e616c46756e6374696f6e207761732063616c6c656400000000008152506105e5565b565b6105e36040518060400160405280601a81526020017f7072697661746546756e6374696f6e207761732063616c6c65640000000000008152506105e5565b565b61067b816040516024016105f99190610b6b565b6040516020818303038152906040527f41304fac000000000000000000000000000000000000000000000000000000007bffffffffffffffffffffffffffffffffffffffffffffffffffffffff19166020820180517bffffffffffffffffffffffffffffffffffffffffffffffffffffffff8381831617835250505050610720565b50565b61071a848484846040516024016106989493929190610b8d565b6040516020818303038152906040527fde68f20a000000000000000000000000000000000000000000000000000000007bffffffffffffffffffffffffffffffffffffffffffffffffffffffff19166020820180517bffffffffffffffffffffffffffffffffffffffffffffffffffffffff8381831617835250505050610720565b50505050565b6107378161072f61073a61075b565b63ffffffff16565b50565b60006a636f6e736f6c652e6c6f679050600080835160208501845afa505050565b61079d819050919050565b6040518060600160405280600073ffffffffffffffffffffffffffffffffffffffff16815260200160608152602001600081525090565b6107a5610bee565b565b6000604051905090565b600080fd5b600080fd5b600073ffffffffffffffffffffffffffffffffffffffff82169050919050565b60006107e6826107bb565b9050919050565b6107f6816107db565b811461080157600080fd5b50565b600081359050610813816107ed565b92915050565b600080fd5b600080fd5b6000601f19601f8301169050919050565b7f4e487b7100000000000000000000000000000000000000000000000000000000600052604160045260246000fd5b61086c82610823565b810181811067ffffffffffffffff8211171561088b5761088a610834565b5b80604052505050565b600061089e6107a7565b90506108aa8282610863565b919050565b600067ffffffffffffffff8211156108ca576108c9610834565b5b6108d382610823565b9050602081019050919050565b82818337600083830152505050565b60006109026108fd846108af565b610894565b90508281526020810184848401111561091e5761091d61081e565b5b6109298482856108e0565b509392505050565b600082601f83011261094657610945610819565b5b81356109568482602086016108ef565b91505092915050565b6000819050919050565b6109728161095f565b811461097d57600080fd5b50565b60008135905061098f81610969565b92915050565b6000806000606084860312156109ae576109ad6107b1565b5b60006109bc86828701610804565b935050602084013567ffffffffffffffff8111156109dd576109dc6107b6565b5b6109e986828701610931565b92505060406109fa86828701610980565b9150509250925092565b600060208284031215610a1a57610a196107b1565b5b6000610a2884828501610980565b91505092915050565b610a3a8161095f565b82525050565b6000602082019050610a556000830184610a31565b92915050565b7f4e487b7100000000000000000000000000000000000000000000000000000000600052603260045260246000fd5b600081519050919050565b600082825260208201905092915050565b60005b83811015610ac4578082015181840152602081019050610aa9565b60008484015250505050565b6000610adb82610a8a565b610ae58185610a95565b9350610af5818560208601610aa6565b610afe81610823565b840191505092915050565b610b12816107db565b82525050565b60006080820190508181036000830152610b328187610ad0565b9050610b416020830186610b09565b8181036040830152610b538185610ad0565b9050610b626060830184610a31565b95945050505050565b60006020820190508181036000830152610b858184610ad0565b905092915050565b60006080820190508181036000830152610ba78187610ad0565b90508181036020830152610bbb8186610ad0565b90508181036040830152610bcf8185610ad0565b90508181036060830152610be38184610ad0565b905095945050505050565b7f4e487b7100000000000000000000000000000000000000000000000000000000600052605160045260246000fdfea2646970667358221220799d2deaa5ea18d6a4e8f4d03cc7714405cd6bf391c35f47370df326c5c92b9364736f6c634300081c0033",
  "linkReferences": {},
  "deployedLinkReferences": {}
}