{"contracts/DemoOperations.sol":{"DemoOperations":{"abi":[{"inputs":[],"name":"callAnotherFunction","outputs":[],"stateMutability":"pure","type":"function"},{"inputs":[{"internalType":"address","name":"_addr","type":"address"},{"internalType":"string","name":"_name","type":"string"},{"internalType":"uint256","name":"_amount","type":"uint256"}],"name":"createAccount","outputs":[],"stateMutability":"pure","type":"function"},{"inputs":[],"name":"createCommunity","outputs":[],"stateMutability":"pure","type":"function"},{"inputs":[],"name":"externalFunction","outputs":[],"stateMutability":"pure","type":"function"},{"inputs":[],"name":"get","outputs":[{"internalType":"uint256","name":"","type":"uint256"}],"stateMutability":"view","type":"function"},{"inputs":[{"internalType":"uint256","name":"value","type":"uint256"}],"name":"set","outputs":[],"stateMutability":"nonpayable","type":"function"}],"evm":{"bytecode":{"linkReferences":{},"object":"6080604052348015600f57600080fd5b50610c538061001f6000396000f3fe608060405234801561001057600080fd5b50600436106100625760003560e01c80633003d242146100675780633104d472146100835780633a32b5491461008d57806352f4c1011461009757806360fe47b1146100a15780636d4ce63c146100bd575b600080fd5b610081600480360381019061007c9190610995565b6100db565b005b61008b610163565b005b610095610175565b005b61009f6101b5565b005b6100bb60048036038101906100b69190610a04565b6104b0565b005b6100c56104ba565b6040516100d29190610a40565b60405180910390f35b600060405180606001604052808573ffffffffffffffffffffffffffffffffffffffff16815260200184815260200183815250905061015d6040518060400160405280601b81526020017f4163636f756e7420637265617465643a2025732c2025732c20257300000000008152508260000151836020015184604001516104c3565b50505050565b61016b610565565b6101736105a5565b565b6101b36040518060400160405280601b81526020017f65787465726e616c46756e6374696f6e207761732063616c6c656400000000008152506105e5565b565b60006040518060600160405280735b38da6a701c568545dcfcb03fcb875f56beddc473ffffffffffffffffffffffffffffffffffffffff1681526020016040518060400160405280600581526020017f416c6963650000000000000000000000000000000000000000000000000000008152508152602001606481525090506000604051806060016040528073ab8483f64d9c6d1ecf9b849ae677dd3315835cb273ffffffffffffffffffffffffffffffffffffffff1681526020016040518060400160405280600381526020017f426f620000000000000000000000000000000000000000000000000000000000815250815260200160c881525090506000604051806060016040528073ca35b7d915458ef540ade6068dfe2f44e8fa733c73ffffffffffffffffffffffffffffffffffffffff1681526020016040518060400160405280600781526020017f436861726c696500000000000000000000000000000000000000000000000000815250815260200161012c81525090506000600367ffffffffffffffff8111156103505761034f610834565b5b60405190808252806020026020018201604052801561038957816020015b610376610766565b81526020019060019003908161036e5790505b50905083816000815181106103a1576103a0610a5b565b5b602002602001018190525082816001815181106103c1576103c0610a5b565b5b602002602001018190525081816002815181106103e1576103e0610a5b565b5b6020026020010181905250600060405180602001604052808381525090506104a96040518060400160405280601d81526020017f436f6d6d756e69747920637265617465643a2025732c2025732c20257300000081525082600001516000815181106104505761044f610a5b565b5b602002602001015160200151836000015160018151811061047457610473610a5b565b5b602002602001015160200151846000015160028151811061049857610497610a5b565b5b60200260200101516020015161067e565b5050505050565b8060008190555050565b60008054905090565b61055f848484846040516024016104dd9493929190610b18565b6040516020818303038152906040527f91d1112e000000000000000000000000000000000000000000000000000000007bffffffffffffffffffffffffffffffffffffffffffffffffffffffff19166020820180517bffffffffffffffffffffffffffffffffffffffffffffffffffffffff8381831617835250505050610720565b50505050565b6105a36040518060400160405280601b81526020017f696e7465726e616c46756e6374696f6e207761732063616c6c656400000000008152506105e5565b565b6105e36040518060400160405280601a81526020017f7072697661746546756e6374696f6e207761732063616c6c65640000000000008152506105e5565b565b61067b816040516024016105f99190610b6b565b6040516020818303038152906040527f41304fac000000000000000000000000000000000000000000000000000000007bffffffffffffffffffffffffffffffffffffffffffffffffffffffff19166020820180517bffffffffffffffffffffffffffffffffffffffffffffffffffffffff8381831617835250505050610720565b50565b61071a848484846040516024016106989493929190610b8d565b6040516020818303038152906040527fde68f20a000000000000000000000000000000000000000000000000000000007bffffffffffffffffffffffffffffffffffffffffffffffffffffffff19166020820180517bffffffffffffffffffffffffffffffffffffffffffffffffffffffff8381831617835250505050610720565b50505050565b6107378161072f61073a61075b565b63ffffffff16565b50565b60006a636f6e736f6c652e6c6f679050600080835160208501845afa505050565b61079d819050919050565b6040518060600160405280600073ffffffffffffffffffffffffffffffffffffffff16815260200160608152602001600081525090565b6107a5610bee565b565b6000604051905090565b600080fd5b600080fd5b600073ffffffffffffffffffffffffffffffffffffffff82169050919050565b60006107e6826107bb565b9050919050565b6107f6816107db565b811461080157600080fd5b50565b600081359050610813816107ed565b92915050565b600080fd5b600080fd5b6000601f19601f8301169050919050565b7f4e487b7100000000000000000000000000000000000000000000000000000000600052604160045260246000fd5b61086c82610823565b810181811067ffffffffffffffff8211171561088b5761088a610834565b5b80604052505050565b600061089e6107a7565b90506108aa8282610863565b919050565b600067ffffffffffffffff8211156108ca576108c9610834565b5b6108d382610823565b9050602081019050919050565b82818337600083830152505050565b60006109026108fd846108af565b610894565b90508281526020810184848401111561091e5761091d61081e565b5b6109298482856108e0565b509392505050565b600082601f83011261094657610945610819565b5b81356109568482602086016108ef565b91505092915050565b6000819050919050565b6109728161095f565b811461097d57600080fd5b50565b60008135905061098f81610969565b92915050565b6000806000606084860312156109ae576109ad6107b1565b5b60006109bc86828701610804565b935050602084013567ffffffffffffffff8111156109dd576109dc6107b6565b5b6109e986828701610931565b92505060406109fa86828701610980565b9150509250925092565b600060208284031215610a1a57610a196107b1565b5b6000610a2884828501610980565b91505092915050565b610a3a8161095f565b82525050565b6000602082019050610a556000830184610a31565b92915050565b7f4e487b7100000000000000000000000000000000000000000000000000000000600052603260045260246000fd5b600081519050919050565b600082825260208201905092915050565b60005b83811015610ac4578082015181840152602081019050610aa9565b60008484015250505050565b6000610adb82610a8a565b610ae58185610a95565b9350610af5818560208601610aa6565b610afe81610823565b840191505092915050565b610b12816107db565b82525050565b60006080820190508181036000830152610b328187610ad0565b9050610b416020830186610b09565b8181036040830152610b538185610ad0565b9050610b626060830184610a31565b95945050505050565b60006020820190508181036000830152610b858184610ad0565b905092915050565b60006080820190508181036000830152610ba78187610ad0565b90508181036020830152610bbb8186610ad0565b90508181036040830152610bcf8185610ad0565b90508181036060830152610be38184610ad0565b905095945050505050565b7f4e487b7100000000000000000000000000000000000000000000000000000000600052605160045260246000fdfea2646970667358221220799d2deaa5ea18d6a4e8f4d03cc7714405cd6bf391c35f47370df326c5c92b9364736f6c634300081c0033","opcodes":"PUSH1 0x80 PUSH1 0x40 MSTORE CALLVALUE DUP1 ISZERO PUSH1 0xF JUMPI PUSH1 0x0 DUP1 REVERT JUMPDEST POP PUSH2 0xC53 DUP1 PUSH2 0x1F PUSH1 0x0 CODECOPY PUSH1 0x0 RETURN INVALID PUSH1 0x80 PUSH1 0x40 MSTORE CALLVALUE DUP1 ISZERO PUSH2 0x10 JUMPI PUSH1 0x0 DUP1 REVERT JUMPDEST POP PUSH1 0x4 CALLDATASIZE LT PUSH2 0x62 JUMPI PUSH1 0x0 CALLDATALOAD PUSH1 0xE0 SHR DUP1 PUSH4 0x3003D242 EQ PUSH2 0x67 JUMPI DUP1 PUSH4 0x3104D472 EQ PUSH2 0x83 JUMPI DUP1 PUSH4 0x3A32B549 EQ PUSH2 0x8D JUMPI DUP1 PUSH4 0x52F4C101 EQ PUSH2 0x97 JUMPI DUP1 PUSH4 0x60FE47B1 EQ PUSH2 0xA1 JUMPI DUP1 PUSH4 0x6D4CE63C EQ PUSH2 0xBD JUMPI JUMPDEST PUSH1 0x0 DUP1 REVERT JUMPDEST PUSH2 0x81 PUSH1 0x4 DUP1 CALLDATASIZE SUB DUP2 ADD SWAP1 PUSH2 0x7C SWAP2 SWAP1 PUSH2 0x995 JUMP JUMPDEST PUSH2 0xDB JUMP JUMPDEST STOP JUMPDEST PUSH2 0x8B PUSH2 0x163 JUMP JUMPDEST STOP JUMPDEST PUSH2 0x95 PUSH2 0x175 JUMP JUMPDEST STOP JUMPDEST PUSH2 0x9F PUSH2 0x1B5 JUMP JUMPDEST STOP JUMPDEST PUSH2 0xBB PUSH1 0x4 DUP1 CALLDATASIZE SUB DUP2 ADD SWAP1 PUSH2 0xB6 SWAP2 SWAP1 PUSH2 0xA04 JUMP JUMPDEST PUSH2 0x4B0 JUMP JUMPDEST STOP JUMPDEST PUSH2 0xC5 PUSH2 0x4BA JUMP JUMPDEST PUSH1 0x40 MLOAD PUSH2 0xD2 SWAP2 SWAP1 PUSH2 0xA40 JUMP JUMPDEST PUSH1 0x40 MLOAD DUP1 SWAP2 SUB SWAP1 RETURN JUMPDEST PUSH1 0x0 PUSH1 0x40 MLOAD DUP1 PUSH1 0x60 ADD PUSH1 0x40 MSTORE DUP1 DUP6 PUSH20 0xFFFFFFFFFFFFFFFFFFFFFFFFFFFFFFFFFFFFFFFF AND DUP2 MSTORE PUSH1 0x20 ADD DUP5 DUP2 MSTORE PUSH1 0x20 ADD DUP4 DUP2 MSTORE POP SWAP1 POP PUSH2 0x15D PUSH1 0x40 MLOAD DUP1 PUSH1 0x40 ADD PUSH1 0x40 MSTORE DUP1 PUSH1 0x1B DUP2 MSTORE PUSH1 0x20 ADD PUSH32 0x4163636F756E7420637265617465643A2025732C2025732C2025730000000000 DUP2 MSTORE POP DUP3 PUSH1 0x0 ADD MLOAD DUP4 PUSH1 0x20 ADD MLOAD DUP5 PUSH1 0x40 ADD MLOAD PUSH2 0x4C3 JUMP JUMPDEST POP POP POP POP JUMP JUMPDEST PUSH2 0x16B PUSH2 0x565 JUMP JUMPDEST PUSH2 0x173 PUSH2 0x5A5 JUMP JUMPDEST JUMP JUMPDEST PUSH2 0x1B3 PUSH1 0x40 MLOAD DUP1 PUSH1 0x40 ADD PUSH1 0x40 MSTORE DUP1 PUSH1 0x1B DUP2 MSTORE PUSH1 0x20 ADD PUSH32 0x65787465726E616C46756E6374696F6E207761732063616C6C65640000000000 DUP2 MSTORE POP PUSH2 0x5E5 JUMP JUMPDEST JUMP JUMPDEST PUSH1 0x0 PUSH1 0x40 MLOAD DUP1 PUSH1 0x60 ADD PUSH1 0x40 MSTORE DUP1 PUSH20 0x5B38DA6A701C568545DCFCB03FCB875F56BEDDC4 PUSH20 0xFFFFFFFFFFFFFFFFFFFFFFFFFFFFFFFFFFFFFFFF AND DUP2 MSTORE PUSH1 0x20 ADD PUSH1 0x40 MLOAD DUP1 PUSH1 0x40 ADD PUSH1 0x40 MSTORE DUP1 PUSH1 0x5 DUP2 MSTORE PUSH1 0x20 ADD PUSH32 0x416C696365000000000000000000000000000000000000000000000000000000 DUP2 MSTORE POP DUP2 MSTORE PUSH1 0x20 ADD PUSH1 0x64 DUP2 MSTORE POP SWAP1 POP PUSH1 0x0 PUSH1 0x40 MLOAD DUP1 PUSH1 0x60 ADD PUSH1 0x40 MSTORE DUP1 PUSH20 0xAB8483F64D9C6D1ECF9B849AE677DD3315835CB2 PUSH20 0xFFFFFFFFFFFFFFFFFFFFFFFFFFFFFFFFFFFFFFFF AND DUP2 MSTORE PUSH1 0x20 ADD PUSH1 0x40 MLOAD DUP1 PUSH1 0x40 ADD PUSH1 0x40 MSTORE DUP1 PUSH1 0x3 DUP2 MSTORE PUSH1 0x20 ADD PUSH32 0x426F620000000000000000000000000000000000000000000000000000000000 DUP2 MSTORE POP DUP2 MSTORE PUSH1 0x20 ADD PUSH1 0xC8 DUP2 MSTORE POP SWAP1 POP PUSH1 0x0 PUSH1 0x40 MLOAD DUP1 PUSH1 0x60 ADD PUSH1 0x40 MSTORE DUP1 PUSH20 0xCA35B7D915458EF540ADE6068DFE2F44E8FA733C PUSH20 0xFFFFFFFFFFFFFFFFFFFFFFFFFFFFFFFFFFFFFFFF AND DUP2 MSTORE PUSH1 0x20 ADD PUSH1 0x40 MLOAD DUP1 PUSH1 0x40 ADD PUSH1 0x40 MSTORE DUP1 PUSH1 0x7 DUP2 MSTORE PUSH1 0x20 ADD PUSH32 0x436861726C696500000000000000000000000000000000000000000000000000 DUP2 MSTORE POP DUP2 MSTORE PUSH1 0x20 ADD PUSH2 0x12C DUP2 MSTORE POP SWAP1 POP PUSH1 0x0 PUSH1 0x3 PUSH8 0xFFFFFFFFFFFFFFFF DUP2 GT ISZERO PUSH2 0x350 JUMPI PUSH2 0x34F PUSH2 0x834 JUMP JUMPDEST JUMPDEST PUSH1 0x40 MLOAD SWAP1 DUP1 DUP3 MSTORE DUP1 PUSH1 0x20 MUL PUSH1 0x20 ADD DUP3 ADD PUSH1 0x40 MSTORE DUP1 ISZERO PUSH2 0x389 JUMPI DUP2 PUSH1 0x20 ADD JUMPDEST PUSH2 0x376 PUSH2 0x766 JUMP JUMPDEST DUP2 MSTORE PUSH1 0x20 ADD SWAP1 PUSH1 0x1 SWAP1 SUB SWAP1 DUP2 PUSH2 0x36E JUMPI SWAP1 POP JUMPDEST POP SWAP1 POP DUP4 DUP2 PUSH1 0x0 DUP2 MLOAD DUP2 LT PUSH2 0x3A1 JUMPI PUSH2 0x3A0 PUSH2 0xA5B JUMP JUMPDEST JUMPDEST PUSH1 0x20 MUL PUSH1 0x20 ADD ADD DUP2 SWAP1 MSTORE POP DUP3 DUP2 PUSH1 0x1 DUP2 MLOAD DUP2 LT PUSH2 0x3C1 JUMPI PUSH2 0x3C0 PUSH2 0xA5B JUMP JUMPDEST JUMPDEST PUSH1 0x20 MUL PUSH1 0x20 ADD ADD DUP2 SWAP1 MSTORE POP DUP2 DUP2 PUSH1 0x2 DUP2 MLOAD DUP2 LT PUSH2 0x3E1 JUMPI PUSH2 0x3E0 PUSH2 0xA5B JUMP JUMPDEST JUMPDEST PUSH1 0x20 MUL PUSH1 0x20 ADD ADD DUP2 SWAP1 MSTORE POP PUSH1 0x0 PUSH1 0x40 MLOAD DUP1 PUSH1 0x20 ADD PUSH1 0x40 MSTORE DUP1 DUP4 DUP2 MSTORE POP SWAP1 POP PUSH2 0x4A9 PUSH1 0x40 MLOAD DUP1 PUSH1 0x40 ADD PUSH1 0x40 MSTORE DUP1 PUSH1 0x1D DUP2 MSTORE PUSH1 0x20 ADD PUSH32 0x436F6D6D756E69747920637265617465643A2025732C2025732C202573000000 DUP2 MSTORE POP DUP3 PUSH1 0x0 ADD MLOAD PUSH1 0x0 DUP2 MLOAD DUP2 LT PUSH2 0x450 JUMPI PUSH2 0x44F PUSH2 0xA5B JUMP JUMPDEST JUMPDEST PUSH1 0x20 MUL PUSH1 0x20 ADD ADD MLOAD PUSH1 0x20 ADD MLOAD DUP4 PUSH1 0x0 ADD MLOAD PUSH1 0x1 DUP2 MLOAD DUP2 LT PUSH2 0x474 JUMPI PUSH2 0x473 PUSH2 0xA5B JUMP JUMPDEST JUMPDEST PUSH1 0x20 MUL PUSH1 0x20 ADD ADD MLOAD PUSH1 0x20 ADD MLOAD DUP5 PUSH1 0x0 ADD MLOAD PUSH1 0x2 DUP2 MLOAD DUP2 LT PUSH2 0x498 JUMPI PUSH2 0x497 PUSH2 0xA5B JUMP JUMPDEST JUMPDEST PUSH1 0x20 MUL PUSH1 0x20 ADD ADD MLOAD PUSH1 0x20 ADD MLOAD PUSH2 0x67E JUMP JUMPDEST POP POP POP POP POP JUMP JUMPDEST DUP1 PUSH1 0x0 DUP2 SWAP1 SSTORE POP POP JUMP JUMPDEST PUSH1 0x0 DUP1 SLOAD SWAP1 POP SWAP1 JUMP JUMPDEST PUSH2 0x55F DUP5 DUP5 DUP5 DUP5 PUSH1 0x40 MLOAD PUSH1 0x24 ADD PUSH2 0x4DD SWAP5 SWAP4 SWAP3 SWAP2 SWAP1 PUSH2 0xB18 JUMP JUMPDEST PUSH1 0x40 MLOAD PUSH1 0x20 DUP2 DUP4 SUB SUB DUP2 MSTORE SWAP1 PUSH1 0x40 MSTORE PUSH32 0x91D1112E00000000000000000000000000000000000000000000000000000000 PUSH28 0xFFFFFFFFFFFFFFFFFFFFFFFFFFFFFFFFFFFFFFFFFFFFFFFFFFFFFFFF NOT AND PUSH1 0x20 DUP3 ADD DUP1 MLOAD PUSH28 0xFFFFFFFFFFFFFFFFFFFFFFFFFFFFFFFFFFFFFFFFFFFFFFFFFFFFFFFF DUP4 DUP2 DUP4 AND OR DUP4 MSTORE POP POP POP POP PUSH2 0x720 JUMP JUMPDEST POP POP POP POP JUMP JUMPDEST PUSH2 0x5A3 PUSH1 0x40 MLOAD DUP1 PUSH1 0x40 ADD PUSH1 0x40 MSTORE DUP1 PUSH1 0x1B DUP2 MSTORE PUSH1 0x20 ADD PUSH32 0x696E7465726E616C46756E6374696F6E207761732063616C6C65640000000000 DUP2 MSTORE POP PUSH2 0x5E5 JUMP JUMPDEST JUMP JUMPDEST PUSH2 0x5E3 PUSH1 0x40 MLOAD DUP1 PUSH1 0x40 ADD PUSH1 0x40 MSTORE DUP1 PUSH1 0x1A DUP2 MSTORE PUSH1 0x20 ADD PUSH32 0x7072697661746546756E6374696F6E207761732063616C6C6564000000000000 DUP2 MSTORE POP PUSH2 0x5E5 JUMP JUMPDEST JUMP JUMPDEST PUSH2 0x67B DUP2 PUSH1 0x40 MLOAD PUSH1 0x24 ADD PUSH2 0x5F9 SWAP2 SWAP1 PUSH2 0xB6B JUMP JUMPDEST PUSH1 0x40 MLOAD PUSH1 0x20 DUP2 DUP4 SUB SUB DUP2 MSTORE SWAP1 PUSH1 0x40 MSTORE PUSH32 0x41304FAC00000000000000000000000000000000000000000000000000000000 PUSH28 0xFFFFFFFFFFFFFFFFFFFFFFFFFFFFFFFFFFFFFFFFFFFFFFFFFFFFFFFF NOT AND PUSH1 0x20 DUP3 ADD DUP1 MLOAD PUSH28 0xFFFFFFFFFFFFFFFFFFFFFFFFFFFFFFFFFFFFFFFFFFFFFFFFFFFFFFFF DUP4 DUP2 DUP4 AND OR DUP4 MSTORE POP POP POP POP PUSH2 0x720 JUMP JUMPDEST POP JUMP JUMPDEST PUSH2 0x71A DUP5 DUP5 DUP5 DUP5 PUSH1 0x40 MLOAD PUSH1 0x24 ADD PUSH2 0x698 SWAP5 SWAP4 SWAP3 SWAP2 SWAP1 PUSH2 0xB8D JUMP JUMPDEST PUSH1 0x40 MLOAD PUSH1 0x20 DUP2 DUP4 SUB SUB DUP2 MSTORE SWAP1 PUSH1 0x40 MSTORE PUSH32 0xDE68F20A00000000000000000000000000000000000000000000000000000000 PUSH28 0xFFFFFFFFFFFFFFFFFFFFFFFFFFFFFFFFFFFFFFFFFFFFFFFFFFFFFFFF NOT AND PUSH1 0x20 DUP3 ADD DUP1 MLOAD PUSH28 0xFFFFFFFFFFFFFFFFFFFFFFFFFFFFFFFFFFFFFFFFFFFFFFFFFFFFFFFF DUP4 DUP2 DUP4 AND OR DUP4 MSTORE POP POP POP POP PUSH2 0x720 JUMP JUMPDEST POP POP POP POP JUMP JUMPDEST PUSH2 0x737 DUP2 PUSH2 0x72F PUSH2 0x73A PUSH2 0x75B JUMP JUMPDEST PUSH4 0xFFFFFFFF AND JUMP JUMPDEST POP JUMP JUMPDEST PUSH1 0x0 PUSH11 0x636F6E736F6C652E6C6F67 SWAP1 POP PUSH1 0x0 DUP1 DUP4 MLOAD PUSH1 0x20 DUP6 ADD DUP5 GAS STATICCALL POP POP POP JUMP JUMPDEST PUSH2 0x79D DUP2 SWAP1 POP SWAP2 SWAP1 POP JUMP JUMPDEST PUSH1 0x40 MLOAD DUP1 PUSH1 0x60 ADD PUSH1 0x40 MSTORE DUP1 PUSH1 0x0 PUSH20 0xFFFFFFFFFFFFFFFFFFFFFFFFFFFFFFFFFFFFFFFF AND DUP2 MSTORE PUSH1 0x20 ADD PUSH1 0x60 DUP2 MSTORE PUSH1 0x20 ADD PUSH1 0x0 DUP2 MSTORE POP SWAP1 JUMP JUMPDEST PUSH2 0x7A5 PUSH2 0xBEE JUMP JUMPDEST JUMP JUMPDEST PUSH1 0x0 PUSH1 0x40 MLOAD SWAP1 POP SWAP1 JUMP JUMPDEST PUSH1 0x0 DUP1 REVERT JUMPDEST PUSH1 0x0 DUP1 REVERT JUMPDEST PUSH1 0x0 PUSH20 0xFFFFFFFFFFFFFFFFFFFFFFFFFFFFFFFFFFFFFFFF DUP3 AND SWAP1 POP SWAP2 SWAP1 POP JUMP JUMPDEST PUSH1 0x0 PUSH2 0x7E6 DUP3 PUSH2 0x7BB JUMP JUMPDEST SWAP1 POP SWAP2 SWAP1 POP JUMP JUMPDEST PUSH2 0x7F6 DUP2 PUSH2 0x7DB JUMP JUMPDEST DUP2 EQ PUSH2 0x801 JUMPI PUSH1 0x0 DUP1 REVERT JUMPDEST POP JUMP JUMPDEST PUSH1 0x0 DUP2 CALLDATALOAD SWAP1 POP PUSH2 0x813 DUP2 PUSH2 0x7ED JUMP JUMPDEST SWAP3 SWAP2 POP POP JUMP JUMPDEST PUSH1 0x0 DUP1 REVERT JUMPDEST PUSH1 0x0 DUP1 REVERT JUMPDEST PUSH1 0x0 PUSH1 0x1F NOT PUSH1 0x1F DUP4 ADD AND SWAP1 POP SWAP2 SWAP1 POP JUMP JUMPDEST PUSH32 0x4E487B7100000000000000000000000000000000000000000000000000000000 PUSH1 0x0 MSTORE PUSH1 0x41 PUSH1 0x4 MSTORE PUSH1 0x24 PUSH1 0x0 REVERT JUMPDEST PUSH2 0x86C DUP3 PUSH2 0x823 JUMP JUMPDEST DUP2 ADD DUP2 DUP2 LT PUSH8 0xFFFFFFFFFFFFFFFF DUP3 GT OR ISZERO PUSH2 0x88B JUMPI PUSH2 0x88A PUSH2 0x834 JUMP JUMPDEST JUMPDEST DUP1 PUSH1 0x40 MSTORE POP POP POP JUMP JUMPDEST PUSH1 0x0 PUSH2 0x89E PUSH2 0x7A7 JUMP JUMPDEST SWAP1 POP PUSH2 0x8AA DUP3 DUP3 PUSH2 0x863 JUMP JUMPDEST SWAP2 SWAP1 POP JUMP JUMPDEST PUSH1 0x0 PUSH8 0xFFFFFFFFFFFFFFFF DUP3 GT ISZERO PUSH2 0x8CA JUMPI PUSH2 0x8C9 PUSH2 0x834 JUMP JUMPDEST JUMPDEST PUSH2 0x8D3 DUP3 PUSH2 0x823 JUMP JUMPDEST SWAP1 POP PUSH1 0x20 DUP2 ADD SWAP1 POP SWAP2 SWAP1 POP JUMP JUMPDEST DUP3 DUP2 DUP4 CALLDATACOPY PUSH1 0x0 DUP4 DUP4 ADD MSTORE POP POP POP JUMP JUMPDEST PUSH1 0x0 PUSH2 0x902 PUSH2 0x8FD DUP5 PUSH2 0x8AF JUMP JUMPDEST PUSH2 0x894 JUMP JUMPDEST SWAP1 POP DUP3 DUP2 MSTORE PUSH1 0x20 DUP2 ADD DUP5 DUP5 DUP5 ADD GT ISZERO PUSH2 0x91E JUMPI PUSH2 0x91D PUSH2 0x81E JUMP JUMPDEST JUMPDEST PUSH2 0x929 DUP5 DUP3 DUP6 PUSH2 0x8E0 JUMP JUMPDEST POP SWAP4 SWAP3 POP POP POP JUMP JUMPDEST PUSH1 0x0 DUP3 PUSH1 0x1F DUP4 ADD SLT PUSH2 0x946 JUMPI PUSH2 0x945 PUSH2 0x819 JUMP JUMPDEST JUMPDEST DUP2 CALLDATALOAD PUSH2 0x956 DUP5 DUP3 PUSH1 0x20 DUP7 ADD PUSH2 0x8EF JUMP JUMPDEST SWAP2 POP POP SWAP3 SWAP2 POP POP JUMP JUMPDEST PUSH1 0x0 DUP2 SWAP1 POP SWAP2 SWAP1 POP JUMP JUMPDEST PUSH2 0x972 DUP2 PUSH2 0x95F JUMP JUMPDEST DUP2 EQ PUSH2 0x97D JUMPI PUSH1 0x0 DUP1 REVERT JUMPDEST POP JUMP JUMPDEST PUSH1 0x0 DUP2 CALLDATALOAD SWAP1 POP PUSH2 0x98F DUP2 PUSH2 0x969 JUMP JUMPDEST SWAP3 SWAP2 POP POP JUMP JUMPDEST PUSH1 0x0 DUP1 PUSH1 0x0 PUSH1 0x60 DUP5 DUP7 SUB SLT ISZERO PUSH2 0x9AE JUMPI PUSH2 0x9AD PUSH2 0x7B1 JUMP JUMPDEST JUMPDEST PUSH1 0x0 PUSH2 0x9BC DUP7 DUP3 DUP8 ADD PUSH2 0x804 JUMP JUMPDEST SWAP4 POP POP PUSH1 0x20 DUP5 ADD CALLDATALOAD PUSH8 0xFFFFFFFFFFFFFFFF DUP2 GT ISZERO PUSH2 0x9DD JUMPI PUSH2 0x9DC PUSH2 0x7B6 JUMP JUMPDEST JUMPDEST PUSH2 0x9E9 DUP7 DUP3 DUP8 ADD PUSH2 0x931 JUMP JUMPDEST SWAP3 POP POP PUSH1 0x40 PUSH2 0x9FA DUP7 DUP3 DUP8 ADD PUSH2 0x980 JUMP JUMPDEST SWAP2 POP POP SWAP3 POP SWAP3 POP SWAP3 JUMP JUMPDEST PUSH1 0x0 PUSH1 0x20 DUP3 DUP5 SUB SLT ISZERO PUSH2 0xA1A JUMPI PUSH2 0xA19 PUSH2 0x7B1 JUMP JUMPDEST JUMPDEST PUSH1 0x0 PUSH2 0xA28 DUP5 DUP3 DUP6 ADD PUSH2 0x980 JUMP JUMPDEST SWAP2 POP POP SWAP3 SWAP2 POP POP JUMP JUMPDEST PUSH2 0xA3A DUP2 PUSH2 0x95F JUMP JUMPDEST DUP3 MSTORE POP POP JUMP JUMPDEST PUSH1 0x0 PUSH1 0x20 DUP3 ADD SWAP1 POP PUSH2 0xA55 PUSH1 0x0 DUP4 ADD DUP5 PUSH2 0xA31 JUMP JUMPDEST SWAP3 SWAP2 POP POP JUMP JUMPDEST PUSH32 0x4E487B7100000000000000000000000000000000000000000000000000000000 PUSH1 0x0 MSTORE PUSH1 0x32 PUSH1 0x4 MSTORE PUSH1 0x24 PUSH1 0x0 REVERT JUMPDEST PUSH1 0x0 DUP2 MLOAD SWAP1 POP SWAP2 SWAP1 POP JUMP JUMPDEST PUSH1 0x0 DUP3 DUP3 MSTORE PUSH1 0x20 DUP3 ADD SWAP1 POP SWAP3 SWAP2 POP POP JUMP JUMPDEST PUSH1 0x0 JUMPDEST DUP4 DUP2 LT ISZERO PUSH2 0xAC4 JUMPI DUP1 DUP3 ADD MLOAD DUP2 DUP5 ADD MSTORE PUSH1 0x20 DUP2 ADD SWAP1 POP PUSH2 0xAA9 JUMP JUMPDEST PUSH1 0x0 DUP5 DUP5 ADD MSTORE POP POP POP POP JUMP JUMPDEST PUSH1 0x0 PUSH2 0xADB DUP3 PUSH2 0xA8A JUMP JUMPDEST PUSH2 0xAE5 DUP2 DUP6 PUSH2 0xA95 JUMP JUMPDEST SWAP4 POP PUSH2 0xAF5 DUP2 DUP6 PUSH1 0x20 DUP7 ADD PUSH2 0xAA6 JUMP JUMPDEST PUSH2 0xAFE DUP2 PUSH2 0x823 JUMP JUMPDEST DUP5 ADD SWAP2 POP POP SWAP3 SWAP2 POP POP JUMP JUMPDEST PUSH2 0xB12 DUP2 PUSH2 0x7DB JUMP JUMPDEST DUP3 MSTORE POP POP JUMP JUMPDEST PUSH1 0x0 PUSH1 0x80 DUP3 ADD SWAP1 POP DUP2 DUP2 SUB PUSH1 0x0 DUP4 ADD MSTORE PUSH2 0xB32 DUP2 DUP8 PUSH2 0xAD0 JUMP JUMPDEST SWAP1 POP PUSH2 0xB41 PUSH1 0x20 DUP4 ADD DUP7 PUSH2 0xB09 JUMP JUMPDEST DUP2 DUP2 SUB PUSH1 0x40 DUP4 ADD MSTORE PUSH2 0xB53 DUP2 DUP6 PUSH2 0xAD0 JUMP JUMPDEST SWAP1 POP PUSH2 0xB62 PUSH1 0x60 DUP4 ADD DUP5 PUSH2 0xA31 JUMP JUMPDEST SWAP6 SWAP5 POP POP POP POP POP JUMP JUMPDEST PUSH1 0x0 PUSH1 0x20 DUP3 ADD SWAP1 POP DUP2 DUP2 SUB PUSH1 0x0 DUP4 ADD MSTORE PUSH2 0xB85 DUP2 DUP5 PUSH2 0xAD0 JUMP JUMPDEST SWAP1 POP SWAP3 SWAP2 POP POP JUMP JUMPDEST PUSH1 0x0 PUSH1 0x80 DUP3 ADD SWAP1 POP DUP2 DUP2 SUB PUSH1 0x0 DUP4 ADD MSTORE PUSH2 0xBA7 DUP2 DUP8 PUSH2 0xAD0 JUMP JUMPDEST SWAP1 POP DUP2 DUP2 SUB PUSH1 0x20 DUP4 ADD MSTORE PUSH2 0xBBB DUP2 DUP7 PUSH2 0xAD0 JUMP JUMPDEST SWAP1 POP DUP2 DUP2 SUB PUSH1 0x40 DUP4 ADD MSTORE PUSH2 0xBCF DUP2 DUP6 PUSH2 0xAD0 JUMP JUMPDEST SWAP1 POP DUP2 DUP2 SUB PUSH1 0x60 DUP4 ADD MSTORE PUSH2 0xBE3 DUP2 DUP5 PUSH2 0xAD0 JUMP JUMPDEST SWAP1 POP SWAP6 SWAP5 POP POP POP POP POP JUMP JUMPDEST PUSH32 0x4E487B7100000000000000000000000000000000000000000000000000000000 PUSH1 0x0 MSTORE PUSH1 0x51 PUSH1 0x4 MSTORE PUSH1 0x24 PUSH1 0x0 REVERT INVALID LOG2 PUSH5 0x6970667358 0x22 SLT KECCAK256 PUSH26 0x9D2DEAA5EA18D6A4E8F4D03CC7714405CD6BF391C35F47370DF3 0x26 0xC5 0xC9 0x2B SWAP4 PUSH5 0x736F6C6343 STOP ADDMOD SHR STOP CALLER "},"methodIdentifiers":{"callAnotherFunction()":"3104d472","createAccount(address,string,uint256)":"3003d242","createCommunity()":"52f4c101","externalFunction()":"3a32b549","get()":"6d4ce63c","set(uint256)":"60fe47b1"}}}}}